:10000000020100020066FFFFFFFFFF020884FFFFFE
:10001000FFFFFF020067FFFFFFFFFF020068FFFF17
:10002000FFFFFF020861FFFFFFFFFF020069FFFF04
:10003000FFFFFF02006AFFFFFFFFFF02006BFFFFF1
:10004000FFFFFF02006CFFFFFFFFFF02006DFFFFDD
:10005000FFFFFF02006EFFFFFFFFFF02006FFFFFC9
:10006000FFFFFF020070323232323232323232322D
:1000700032FFFFFFFFFFFFFFFFFFFFFFFFFFFFFF5D
:10008000FFFFFFFFFFFFFFFFFFFFFFFFFFFFFFFF80
:10009000FFFFFFFFFFFFFFFFFFFFFFFFFFFFFFFF70
:1000A000FFFFFFFFFFFFFFFFFFFFFFFFFFFFFFFF60
:1000B000FFFFFFFFFFFFFFFFFFFFFFFFFFFFFFFF50
:1000C000FFFFFFFFFFFFFFFFFFFFFFFFFFFFFFFF40
:1000D000FFFFFFFFFFFFFFFFFFFFFFFFFFFFFFFF30
:1000E000FFFFFFFFFFFFFFFFFFFFFFFFFFFFFFFF20
:1000F000FFFFFFFFFFFFFFFFFFFFFFFFFFFFFFFF10
:1001000075A80075814075D000C299D200C298755B
:100110007870757970753B14753C00753D00753EBF
:1001200000753F00759852759610758921758AFC87
:10013000758C4B758DFDD28CD28ED2A9D2ACD2AF3C
:10014000740AD5E0FD12068E0D0A0020DA1C20DEAE
:100150004712068E0D0A45787465726E616C2072C6
:10016000657365742E0D0A00804D12068E0D0A57B8
:1001700061746368646F672072657365742E0D0A1D
:100180000075C7AA75C755C2D97400D5E0FD75C7FB
:10019000AA75C755C2DA801F12068E0D0A506F77F6
:1001A0006572206F6E2072657365742E0D0A00757E
:1001B000C7AA75C755C2DE12068E0D0A44533839D8
:1001C00043343430204550524F4D20456D756C619D
:1001D000746F722056657273696F6E20312E372EE0
:1001E000300D0A00804B1206AA12068E0A0D3E3E02
:1001F00000053AE53A7002053945397002B2B41289
:10020000073D50ED12075DB43A0302037EB4440388
:1002100002043AB446030204D5B44C03020382B488
:100220004D0302030FB4560302052EB45503020713
:100230008412068E0D0A2044202D2044756D7020F6
:1002400049445437313334204475616C2D706F72DA
:10025000742052414D0A0D2046202D2046696C6CB9
:100260002049445437313334204475616C2D706F0C
:1002700072742052414D0A0D204C202D204C6F618C
:100280006420496E74656C206865782066696C65C9
:1002900020696E746F2049445437313334204475DB
:1002A000616C2D706F72742052414D0A0D204D20EB
:1002B0002D204578616D696E652F4D6F6469667993
:1002C0002049445437313334204475616C2D706FAC
:1002D00072742052414D0A0D2055202D2053686F15
:1002E0007720757074696D650A0D2056202D204D9C
:1002F0006F76652049445437313334204475616C3E
:100300002D706F72742052414D0A0D000201E612E9
:10031000068E0A0D416464726573733A20001205FB
:10032000E750030201E61206AAE58312063AE582C7
:1003300012063AE0C0E0C083C08212068E20202060
:100340002D2D3E2000D082D083D0E012063AC0830B
:10035000C08212068E2020204E65772076616C7553
:10036000653A2000D082D0831206C2B42003A38055
:10037000B5B40D030201E6120599F0A380A87F0031
:10038000802912068E0A0A0D57616974696E67200A
:10039000666F722068657820646F776E6C6F616439
:1003A0002E2E2E0A0D007F001206BC120735B41B3C
:1003B000030201E6B43AF1120596602CFDFE120527
:1003C00096F5832EFE120596F5822EFE1205962EC8
:1003D000FE120596F02EFEA3DDF7EEF404FE1205E4
:1003E00096C39E60010F61A812059612059612052C
:1003F000961205961206BC120735EFC4540F12066A
:10040000AA6006120678120735EF12067812073531
:1004100012068E20636865636B73756D206572725A
:100420006F727320647572696E6720646F776E6C8B
:100430006F61642E0A0D000201E612068E0A0D415C
:100440006464726573733A20001205E75003020179
:10045000E6E58254F0F582C083C08212068E202029
:1004600020436F756E743A20001205E750030201B5
:10047000E6AA83AB82D082D08340571206AA7C10B2
:10048000E58312063AE58212063A1206A0C083C03E
:1004900082E012063A1206A0A3DCF61206A0D08271
:1004A000D0837E10E0B47F02800540030204B9B41B
:1004B000200050030204B98002742E120735A3DE17
:1004C000E31206AAC3EB9410FBEA9400FA4B600215
:1004D00050AC0201E612068E0A0D41646472657327
:1004E000733A20001205E74042C083C08212068E94
:1004F000202020436F756E743A20001205E7AA830E
:10050000AB82D082D08340230A0BC083C082120604
:100510008E20202056616C75653A2000D082D083F1
:100520001205964006F0A3DBFCDAFA0201E6120699
:100530008E0A0D536F757263653A20001205E7400D
:1005400052AC83AD8212068E2020204465737469FC
:100550006E6174696F6E3A20001205E74035AE8314
:10056000AF8212068E202020436F756E743A2000F1
:100570001205E7401EAA83AB820A0B8C838D82E0B2
:10058000A3AC83AD828E838F82F0A3AE83AF82DB78
:10059000EADAE80201E61206E9B41B030205DFB459
:1005A0000D030205DFB43000500302059612065613
:1005B000C0F0F5F01206E9B41B030205DDB40D032B
:1005C0000205E1B4300050030205B4120656C0E043
:1005D000E5F0C4F5F0D0E045F0D0F0C322D0F0D380
:1005E00022E5F0D0F0C3227582007583001206E97F
:1005F000402212061575F0031206E9B40D03020637
:1006000013B41B03020614B420030205F8120615E6
:10061000D5F0E5C322120656C0E0E583C454F0F5D8
:1006200083E582C4540F4583F583E582C454F0F515
:1006300082D0E0540F4582F58222C0F08EF0C0F0E7
:10064000FEC4120678120735EE120678120735D06E
:10065000F0AEF0D0F022C0F0B461005003020662A8
:100660009420C2D79430F5F0940A20D706E5F09490
:1006700007F5F0E5F0D0F022C0F0540FC2D7F5F046
:10068000940AE5F020D70224072430D0F022D0834A
:10069000D082E493120735A3E493B400F574017398
:1006A000C0E07420120735D0E022C0E0740D1207BC
:1006B00035740A120735D0E03000FD2212073D5094
:1006C000FB2212073D50FB547FB43000500302065A
:1006D000E8B47A02800540030206E8B461005003E2
:1006E0000206E594201207352212073D50FB547F85
:1006F000B40D03020733B41B03020733B420030213
:100700000733B4300050030206E9B461005003021D
:1007100007149420B44602800540030206E9B43A67
:1007200000500302072EB4410050030206E91207ED
:1007300035C322D3223000FDC200F59922E579B5F8
:100740007802C322C0F088F0C0F0A879E60579539A
:100750007907437970D0F0A8F0D0F0D322B46100CB
:100760004007B47B00500224E022C0F075F0C9D5E8
:10077000F0FDD5F0FDD0F0D5E0F0227F0A7464F1F1
:100780006ADFFA221206AA12068E557074696D6528
:100790003A2000E53F601D120823B4010C12068EBA
:1007A000206461792C2000800B12068E2064617910
:1007B000732C2000E53E601F120823B4010D1206C1
:1007C0008E20686F75722C2000800C12068E2068B7
:1007D0006F7572732C2000E53D6023120823B4016D
:1007E0000F12068E206D696E7574652C2000800EC8
:1007F00012068E206D696E757465732C2000E53CC1
:10080000120823B4010E12068E207365636F6E64A6
:10081000000201E612068E207365636F6E6473003A
:100820000201E6C0E0C0F0C00075F064842430F836
:10083000B43003020839120735E5F075F00A842454
:1008400030B8300280054003020851B4300302087A
:1008500054120735E5F02430120735D000D0F0D01F
:10086000E0C0D0309904C299D200309814C298C028
:10087000E0E8A878A699F8D0E0057853780743789F
:1008800070D0D032C28C758C4B758AFCD28CC0D0A3
:10089000D53B27753B14C0E0053CE53CB43C1975DD
:1008A0003C00053DE53DB43C0F753D00053EE53E91
:0D08B000B41805753E00053FD0E0D0D032F1
:00000001FF
